S00C00004C6162342E73726563D5
S11300000C942A000C9447000C9447000C9447006D
S11300100C9447000C9447000C9447000C94470040
S11300200C9447000C9447000C9447000C94470030
S11300300C9447000C9447000C9447000C94470020
S11300400C9447000C9447000C9447000C94470010
S11300500C94470011241FBECFE5D8E0DEBFCDBF0E
S113006010E0A0E6B0E0EAEEF7E002C005900D92E1
S1130070A436B107D9F720E0A4E6B0E001C01D9290
S1130080A638B207E1F70E946D000C94F3030C94B8
S113009000009C0183E083BF83E808C082BF98B757
S11300A0916098BFA89508B600FEFDCF2150310994
S11300B0A8F713BE08953E9A86B1866886B93D9A1C
S11300C087B1807F87B9089587B187B9369A349B01
S11300D0FECF349A84B195B108958FE081BD0E941A
S11300E0B7000E945B0000E610E0C5E7D0E080E0C6
S11300F00E946400F82EE92E84EF91E00E944900EA
S11301000E94DF0061E081E00E94E400EF92FF9230
S11301101F930F93DF93CF930E940901CE010E9496
S1130120F8000F900F900F900F900F900F90DFCF6B
S1130130662311F0C09A01C0C098C19882BB8FEFAA
S113014081BBC29A000000000000C2980895C098C4
S1130150C19A11BA90B3C29A00000000000011BA0B
S113016090B3C29899239CF30E9498000895B89A7A
S1130170B99ABA9A80E190E00E94490060E080E375
S11301800E94980085E090E00E94490060E080E3CE
S11301900E94980081E090E00E94490060E08CE3B6
S11301A00E94A70060E08CE00E94A70060E086E067
S11301B00E94A70060E081E00E94A700089560E02B
S11301C081E00E94A7000895CF93C62F98E2899FEB
S11301D0C00D112460E082E00E94A700CC2331F01E
S11301E060E084E10E94A700C150D1F7CF91089547
S11301F0CF93DF93EC012196FC018081882331F0B9
S113020061E00E94A70089918111FACFDF91CF911B
S11302100895AEE0B0E0EFE0F1E00C94CA030D897C
S11302201E8986E08C831A8309838FEF9FE79E8360
S11302308D83AE01475E5F4F6F89788DCE01019645
S11302400E942B01EF81F885E00FF11F10822E969A
S1130250E4E00C94E603ABE0B0E0E1E3F1E00C94FD
S1130260BC036C017B018A01FC0117821682838125
S113027081FFCCC1CE0101963C01F6019381F701C7
S113028093FD859193FF81917F01882309F4BAC17D
S1130290853239F493FD859193FF81917F018532F5
S11302A029F4B60190E00E942203E7CF912C212C7F
S11302B0312CFFE1F315D8F08B3279F038F4803229
S11302C079F08332A1F4232D20611DC08D3261F0B9
S11302D0803369F4232D216016C0832D8260382E6B
S11302E0E32DE4603E2E2AC0F32DF8601DC037FCD8
S11302F02DC020ED280F2A3040F08E32B9F436FCA0
S113030081C1232D2064322E19C036FE06C08AE036
S1130310989E200D1124922E11C0EAE02E9E200DED
S11303201124222EF32DF0623F2E08C08C3621F4C6
S1130330832D8068382E02C0883641F4F70193FD7E
S1130340859193FF81917F018111B3CF982F9F7D78
S11303509554933028F40C5F1F4F9FE399830DC08D
S1130360833631F0833771F0833509F059C021C0E9
S1130370F801808189830E5F1F4F88248394912C18
S1130380530113C02801F2E04F0E511CF801A08064
S1130390B18036FE03C0692D70E002C06FEF7FEFBD
S11303A0C5010E9417034C018201F32DFF773F2EF4
S11303B016C0280122E0420E511CF801A080B18031
S11303C036FE03C0692D70E002C06FEF7FEFC501F8
S11303D00E940C034C01F32DF0683F2E820133FC84
S11303E01BC0822D90E088169906B0F4B60180E215
S11303F090E00E9422032A94F4CFF50137FC859102
S113040037FE81915F01B60190E00E942203211022
S11304102A9421E0821A91088114910471F7E8C0AA
S1130420843611F0893641F5F80137FE07C0608142
S11304307181828193810C5F1F4F08C0608171813B
S1130440072E000C880B990B0E5F1F4FF32DFF76C0
S11304503F2E97FF09C090958095709561957F4FC9
S11304608F4F9F4FF0683F2E2AE030E0A3010E9497
S11304705E03882E861845C0853731F4232D2F7EE0
S1130480B22E2AE030E025C0932D997FB92E8F3605
S1130490C1F018F4883579F0B5C0803719F0883781
S11304A021F0B0C0E92FE061BE2EB4FE0DC0FB2DDB
S11304B0F460BF2E09C034FE0AC0292F2660B22E74
S11304C006C028E030E005C020E130E002C020E1B1
S11304D032E0F801B7FE07C06081718182819381A7
S11304E00C5F1F4F06C06081718180E090E00E5F59
S11304F01F4FA3010E945E03882E8618FB2DFF77F1
S11305003F2E36FE0DC0232D2E7FA22E891458F4C3
S113051034FE0BC032FC09C0832D8E7EA82E05C08C
S1130520B82CA32C03C0B82C01C0B92CA4FE0FC056
S1130530FE01E80DF11D8081803321F49A2D997E0E
S1130540A92E09C0A2FE06C0B394B39404C08A2D98
S1130550867809F0B394A3FC11C0A0FE06C0B214BF
S113056088F4280C922C9B180EC0B21460F4B601C7
S113057080E290E00E942203B394F7CFB21418F4FF
S11305802B1802C0982C212CA4FE10C0B60180E3C5
S113059090E00E942203A2FE17C0A1FC03C088E7DA
S11305A090E002C088E590E0B6010CC08A2D867800
S11305B059F0A1FE02C08BE201C080E2A7FC8DE2EB
S11305C0B60190E00E942203891438F4B60180E356
S11305D090E00E9422039A94F7CF8A94F301E80DE5
S11305E0F11D8081B60190E00E9422038110F5CFB5
S11305F0222009F442CEB60180E290E00E94220358
S11306002A94F6CFF6018681978102C08FEF9FEF7F
S11306102B96E2E10C94D803FC01059061507040E4
S11306200110D8F7809590958E0F9F1F0895FC01B7
S11306306150704001900110D8F7809590958E0F0D
S11306409F1F08950F931F93CF93DF93FB01238183
S113065021FD03C08FEF9FEF2CC022FF16C04681FF
S11306605781248135814217530744F4A081B18115
S11306709D012F5F3F4F318320838C9326813781E7
S11306802F5F3F4F3783268314C08B01EC01FB019E
S11306900084F185E02D0995892BE1F6D8011696A1
S11306A08D919C911797019617969C938E9316970C
S11306B0CE01DF91CF911F910F910895FA01AA27DE
S11306C0283051F1203181F1E8946F936E7F6E5F91
S11306D07F4F8F4F9F4FAF4FB1E03ED0B4E03CD03F
S11306E0670F781F891F9A1FA11D680F791F8A1F22
S11306F0911DA11D6A0F711D811D911DA11D20D089
S113070009F468943F912AE0269F11243019305D42
S11307103193DEF6CF010895462F4770405D419333
S1130720B3E00FD0C9F7F6CF462F4F70405D4A3380
S113073018F0495D31FD4052419302D0A9F7EACF48
S1130740B4E0A6959795879577956795BA95C9F777
S113075000976105710508959B01AC010A2E06946A
S11307605795479537952795BA95C9F7620F731F23
S1130770841F951FA01D08952F923F924F925F9260
S11307806F927F928F929F92AF92BF92CF92DF929D
S1130790EF92FF920F931F93CF93DF93CDB7DEB702
S11307A0CA1BDB0B0FB6F894DEBF0FBECDBF099496
S11307B02A88398848885F846E847D848C849B84ED
S11307C0AA84B984C884DF80EE80FD800C811B81FB
S11307D0AA81B981CE0FD11D0FB6F894DEBF0FBE2A
S10D07E0CDBFED010895F894FFCF9A
S10707EA256400007E
S9030000FC
