:100000000C94AB000C94C8000C94C8000C94C8006D
:100010000C94C8000C94C8000C94C8000C94C80040
:100020000C94C8000C94C8000C94C8000C94C80030
:100030000C94C8000C94C8000C94C8000C94C80020
:100040000C94C8000C94C8000C94C8000C94C80010
:100050000C94C8006E616E00696E660000407A10F4
:10006000F35A00A0724E18090010A5D4E80000E869
:100070007648170000E40B54020000CA9A3B0000C7
:1000800000E1F505000080969800000040420F0056
:100090000000A08601000000102700000000E80317
:1000A000000000006400000000000A0000000000E2
:1000B0000100000000002C76D888DC674F0823DFA1
:1000C000C1DFAE59E1B1B796E5E3E453C63AE65174
:1000D000997696E8E6C28426EB898C9B62ED407C9B
:1000E0006FFCEFBC9C9F40F2BAA56FA5F490055A37
:1000F0002AF75C936B6CF9676DC11BFCE0E40D475C
:10010000FEF520E6B500D0ED902E0300943577057E
:100110000080841E080000204E0A000000C80C3336
:100120003333330F986E12831141EF8D2114893BC5
:10013000E65516CFFEE6DB18D1844B381BF77C1D45
:10014000901DA4BBE424203284725E228100C9F198
:1001500024ECA1E53D2711241FBECFE5D8E0DEBF8A
:10016000CDBF10E0A0E6B0E0E0E3F7E102C005900B
:100170000D92A43AB107D9F720E0A4EAB0E001C09B
:100180001D92A63CB207E1F70E9497010C94960BD2
:100190000C9400009C0183E083BF83EF08C082BF02
:1001A00098B7916098BFA89508B600FEFDCF215082
:1001B0003109A8F713BE08958F929F92AF92BF9214
:1001C000CF92DF92EF92FF92CF93DF93EA019B01F0
:1001D000AC0160E070E080E89FE30E94760320E0DD
:1001E00030E04AE754E40E9422056B017C01BE0125
:1001F00080E090E00E941D04A70196010E94760312
:100200000E94E803EB0120E030E040E05FE3C7013B
:10021000B6010E94220520E030E048EC52E40E9442
:1002200022054B015C01209781F0DB9AC501B401E6
:100230000E94E8036B017C01CB010E94CA00DB989D
:10024000C6010E94CA00219781F7DF91CF91FF90EC
:10025000EF90DF90CF90BF90AF909F908F900895D8
:100260003E9A86B1866886B987B1807F87B908953E
:1002700097B18770982B97B9369A349BFECF349AF2
:1002800084B195B10895CF93C82F14BA15BA44B369
:100290006C5F7F4F81E090E09C0102C0220F331F12
:1002A0006A95E2F7242B24BB25B30C2E02C0880FDD
:1002B000991F0A94E2F7822B85BB81E090E00E94AF
:1002C000CA0023B330E002C035952795CA95E2F7FE
:1002D00081E090E020FF02C080E090E0CF9108959F
:1002E0000F931F93CF93DF9300E010E018C0BE017F
:1002F000C8010E944301009749F0C801880F991F67
:10030000880F991F01968C0F9D1F0CC02196C43039
:10031000D10569F70F5F1F4F0430110519F0C0E0D8
:10032000D0E0E5CFDF91CF911F910F910895CF934A
:10033000DF93CDB7DEB76C970FB6F894DEBF0FBE74
:10034000CDBF8FE081BD0E941F030E943001D39A70
:100350001B8E1A8E312C85EB90E0888F998F412C63
:10036000512C3201388A398A3A8A3B8A3C8A3D8A42
:100370003E8A3F8A3D823E820F2EF0EA2F2EF02DDC
:1003800090E49F8339823A823B823C820E947001D2
:100390008430910541F0089709F403C18A8D9B8D43
:1003A000019709F000C19FEF491A590A690A790AB1
:1003B000832D0E943801FC014C01282F392D432D3B
:1003C000532D632D732D832D932DA888B988CA884A
:1003D000DB88EC88FD880E891F890E94E309288745
:1003E00039874A875B876C877D878E879F87288BB5
:1003F000398B4A8B5B8B6C8B7D8B8E8B9F8BBF017C
:1004000080E090E00E941D042AE939E94CE453E4BD
:100410000E9476036C8F7A8F882E992ED301C201A9
:10042000BB0F880B982FDC01A42CB52CC62CD72C25
:10043000E82EF82E082F182F288539854A855B85E8
:100440006C857D858E859F850E940E090E9417040C
:100450002AE939E94CE453E40E947603062F172F6A
:10046000F82EE92E7C8D6A8D272F362F482D592D99
:10047000B981AA81FB81EC816B2F7A2F8F2F9E2F60
:100480000E947103882334F42C8D29838A8D8A83FA
:100490008B829C827C8D6A8D272F362F482D592D7B
:1004A000BD81AE81EF816B2F7A2F822D9E2F0E940E
:1004B0001D05181634F49C8D9D832A8D2E83282CBF
:1004C0009F820E94470361E0832D0E944C03EF92BC
:1004D000FF921F930F939F928F928A8D8F939C8D83
:1004E0009F9380E690E09F938F9385EB90E09F939E
:1004F0008F930E94160B888D998D0E94600361E096
:1005000081E00E944C038C818F939B819F932A8171
:100510002F9389818F939F819F932F922E812F9369
:100520008D818F9382E790E09F938F9385EB90E08E
:100530009F938F930E94160B888D998D0E94600364
:100540000FB6F894DEBF0FBECDBF20E030E040E92B
:1005500050E4BC8DAA8D6B2F7A2F882D992D0E9487
:100560001D05181674F020E030E040E05FE3BC8D1C
:10057000AA8D6B2F7A2F882D992D0E9471038823C5
:1005800044F44EE150E060E070E08FED94E40E94AE
:10059000DC0088E893E10E94CA0091E09A8F1B8EEC
:1005A000F5CE1A8E1B8E8A8D9B8D892B09F0EECE8F
:1005B0000E94470361E0832D0E944C038EE0E4E833
:1005C000F0E0A5EBB0E001900D928A95E1F785EBA4
:1005D00090E00E94600361E081E00E944C038EE0A5
:1005E000E2E9F0E0A5EBB0E001900D928A95E1F729
:1005F00085EB90E00E94600393E09A8F1B8EAFCE54
:10060000662311F0C09A01C0C098C19882BB8FEFD9
:1006100081BBC29A000000000000C2980895C098F3
:10062000C19A11BA90B3C29A00000000000011BA3A
:1006300090B3C29899239CF30E9400030895B89A3E
:10064000B99ABA9A80E190E00E94CA0060E080E323
:100650000E94000385E090E00E94CA0060E080E311
:100660000E94000381E090E00E94CA0060E08CE3F9
:100670000E940F0360E08CE00E940F0360E086E0C0
:100680000E940F0360E081E00E940F03089560E084
:1006900081E00E940F030895CF93C62F98E2899FAF
:1006A000C00D112460E082E00E940F03CC2331F0E2
:1006B00060E084E10E940F03C150D1F7CF9108950B
:1006C000CF93DF93EC012196FC018081882331F0E8
:1006D00061E00E940F0389918111FACFDF91CF91E0
:1006E00008950E94980408F481E008950E948A0306
:1006F0000C94E3040E94DC0458F00E94D50440F0FE
:1007000029F45F3F29F00C94BC0451110C94170597
:100710000C94C2040E94F40468F39923B1F35523A6
:1007200091F3951B550BBB27AA2762177307840704
:1007300038F09F5F5F4F220F331F441FAA1FA9F39A
:1007400035D00E2E3AF0E0E832D091505040E69588
:10075000001CCAF72BD0FE2F29D0660F771F881FE9
:10076000BB1F261737074807AB07B0E809F0BB0BDC
:10077000802DBF01FF2793585F4F3AF09E3F5105F0
:1007800078F00C94BC040C9417055F3FE4F3983E9A
:10079000D4F3869577956795B795F7959F5FC9F7D9
:1007A000880F911D9695879597F90895E1E0660F5A
:1007B000771F881FBB1F621773078407BA0720F0D3
:1007C000621B730B840BBA0BEE1F88F7E09508953C
:1007D0000E94FC0488F09F5798F0B92F9927B751D1
:1007E000B0F0E1F0660F771F881F991F1AF0BA95D5
:1007F000C9F714C0B13091F00E941605B1E0089518
:100800000C941605672F782F8827B85F39F0B93F09
:10081000CCF3869577956795B395D9F73EF4909587
:100820008095709561957F4F8F4F9F4F089597FBEF
:1008300016F40E94C5040C945B04E89409C097FB6D
:100840003EF490958095709561957F4F8F4F9F4FA7
:100850009923A9F0F92F96E9BB279395F6958795EB
:1008600077956795B795F111F8CFFAF4BB0F11F4AE
:1008700060FF1BC06F5F7F4F8F4F9F4F16C0882355
:1008800011F096E911C0772321F09EE8872F762F8B
:1008900005C0662371F096E8862F70E060E02AF0CC
:1008A0009A95660F771F881FDAF7880F96958795B8
:1008B00097F90895E894F92F96EBFF2381F012162B
:1008C00013061406440B9395F695879577956795CF
:1008D00057954040FF23B9F71BC0992708958823F7
:1008E00051F49850D2F7872B762F652F542F432F32
:1008F000322F20E0B1F3121613061406440B88239E
:100900003AF09A95440F551F661F771F881FCAF744
:1009100055234AF4440F551F11F460FF04C06F5F64
:100920007F4F8F4F9F4F880F9695879597F9089522
:10093000990F0008550FAA0BE0E8FEEF16161706F0
:10094000E807F907C0F012161306E407F50798F058
:10095000621B730B840B950B39F40A2661F0232B71
:10096000242B252B21F408950A2609F4A140A695ED
:100970008FEF811D811D089597F99F6780E870E0D2
:1009800060E008959FEF80EC0895909580957095B4
:10099000609550954095309521953F4F4F4F5F4F53
:1009A0006F4F7F4F8F4F9F4F089500240A94161664
:1009B000170618060906089500240A94121613064D
:1009C000140605060895092E0394000C11F48823DB
:1009D00052F0BB0F40F4BF2B11F460FF04C06F5FF7
:1009E0007F4F8F4F9F4F089557FD9058440F551FCD
:1009F00059F05F3F71F04795880F97FB991F61F0A1
:100A00009F3F79F087950895121613061406551F17
:100A1000F2CF4695F1DF08C0161617061806991F83
:100A2000F1CF86957105610508940895E894BB2778
:100A300066277727CB0197F908950E94980408F458
:100A40008FEF08950E9435050C94E3040E94D504AD
:100A500038F00E94DC0420F0952311F00C94BC04C3
:100A60000C94C20411240C9417050E94F40470F332
:100A7000959FC1F3950F50E0551F629FF001729F43
:100A8000BB27F00DB11D639FAA27F00DB11DAA1F52
:100A9000649F6627B00DA11D661F829F2227B00D9F
:100AA000A11D621F739FB00DA11D621F839FA00D2A
:100AB000611D221F749F3327A00D611D231F849F7A
:100AC000600D211D822F762F6A2F11249F575040D1
:100AD0009AF0F1F088234AF0EE0FFF1FBB1F661F4C
:100AE000771F881F91505040A9F79E3F510580F015
:100AF0000C94BC040C9417055F3FE4F3983ED4F3C8
:100B0000869577956795B795F795E7959F5FC1F7B8
:100B1000FE2B880F911D9695879597F90895A0E172
:100B2000B0E0E5E9F5E00C94AC097C011B016A0139
:100B3000FC0117821682838181FF44C39E012F5FCF
:100B40003F4F3901F7019381F10193FD859193FFA7
:100B500081911F01882309F431C3853239F493FD53
:100B6000859193FF81911F01853239F4B70190E09F
:100B70000E94DA0A56016501E5CF10E0512C912C54
:100B8000FFE1F915D8F08B3279F038F4803279F042
:100B90008332A1F4F92DF0612EC08D3261F08033E3
:100BA00069F4292D21602DC0392D3260932E892DB5
:100BB0008460982E2AC0E92DE86015C097FC2DC0EE
:100BC00020ED280F2A3088F496FE06C03AE0139FE5
:100BD000200D1124122F19C08AE0589E200D1124D7
:100BE000522EE92DE0629E2E10C08E3231F496FC1A
:100BF000E5C2F92DF0649F2E08C08C3621F4292D12
:100C00002068922E02C0883641F4F10193FD85914F
:100C100093FF81911F018111B3CF9BEB980F93300C
:100C200020F4992D9061805E07C09BE9980F933066
:100C300008F066C1992D9F7E96FF16E09F73992E4E
:100C4000853619F49064992E08C0863621F4392F20
:100C50003068932E02C01111115097FE07C01C334B
:100C600050F444244394410E27E00BC0183038F070
:100C700027E017E005C027E09CE3492E02C0212FA2
:100C8000412C560184E0A80EB11CF60160817181EF
:100C900082819381042DA3010E94EC096C01F981EA
:100CA000FC87F0FF02C0F3FF06C091FC06C092FE75
:100CB00006C000E205C00DE203C00BE201C000E087
:100CC0008C858C7019F001115AC29BC297FE10C01E
:100CD0004C0CFC85F4FF04C08A81813309F44A94EA
:100CE000141474F528E0241578F588E0482E2CC0FB
:100CF00096FC2AC0812F90E08C159D059CF03CEF5E
:100D0000C3163FEFD30674F0892D8068982E0AC071
:100D1000E2E0F0E0EC0FFD1FE10FF11D8081803378
:100D200019F411501111F4CF97FE0EC044244394CE
:100D3000410E812F90E0C816D9062CF41C1904C06E
:100D40004424439401C010E097FE06C01C141D0407
:100D500034F4C601019605C085E090E002C081E050
:100D600090E001110196112331F0212F30E02F5F27
:100D70003F4F820F931F252D30E08217930714F405
:100D8000581A01C0512C892D897049F4552039F029
:100D9000B70180E290E00E94DA0A5A94F7CF00236C
:100DA00029F0B701802F90E00E94DA0A93FC09C075
:100DB000552039F0B70180E390E00E94DA0A5A9496
:100DC000F7CF97FE4CC04601D7FE02C0812C912C74
:100DD000C60188199909F301E80FF91FFE87ED870D
:100DE000960124193109388B2F87012F10E01195B6
:100DF000019511093FEF8316930629F4B7018EE29E
:100E000090E00E94DA0AC814D9044CF08F859889C2
:100E10008815990524F4ED85FE85818101C080E364
:100E2000F1E08F1A91082D853E852F5F3F4F3E8759
:100E30002D87801691062CF0B70190E00E94DA0A07
:100E4000D9CFC814D90441F49A81963320F495334C
:100E500019F43C8534FF81E3B70190E04EC08A81EC
:100E6000813319F09C859F7E9C87B70190E00E949A
:100E7000DA0A111105C094FC18C085E690E017C08D
:100E8000B7018EE290E00E94DA0A1E5F82E001E084
:100E9000080FF301E80FF11D8081B70190E00E9477
:100EA000DA0A802F0113F3CFE6CF85E490E0B70193
:100EB0000E94DA0AD7FC06C0C114D10441F4EC85C3
:100EC000E4FF05C0D194C194D1088DE201C08BE24A
:100ED000B70190E00E94DA0A80E32AE0C216D1044A
:100EE0002CF08F5FFAE0CF1AD108F7CFB70190E06E
:100EF0000E94DA0AB701C601C0960E94DA0A54C1FC
:100F0000833631F0833779F0833509F056C020C03D
:100F1000560132E0A30EB11CF6018081898301E005
:100F200010E0630112C05601F2E0AF0EB11CF601F1
:100F3000C080D18096FE03C0612F70E002C06FEFC9
:100F40007FEFC6010E94CF0A8C01F92DFF7714C0F4
:100F5000560122E0A20EB11CF601C080D18096FE9F
:100F600003C0612F70E002C06FEF7FEFC6010E94E7
:100F7000C40A8C01F92DF0689F2EF3FD1AC0852D4F
:100F800090E008171907A8F4B70180E290E00E94EA
:100F9000DA0A5A94F4CFF60197FC859197FE819175
:100FA0006F01B70190E00E94DA0A51105A94015083
:100FB00011090115110579F7F7C0843611F089364A
:100FC00061F5560197FE09C024E0A20EB11CF6019E
:100FD00060817181828193810AC0F2E0AF0EB11C01
:100FE000F60160817181072E000C880B990BF92D99
:100FF000FF769F2E97FF09C090958095709561951B
:101000007F4F8F4F9F4FF0689F2E2AE030E0A30163
:101010000E94380BC82EC6183FC0092D853721F411
:101020000F7E2AE030E01DC0097F8F3691F018F462
:10103000883559F0C3C0803719F0883711F0BEC029
:10104000006104FF09C0046007C094FE08C0066088
:1010500006C028E030E005C020E130E002C020E119
:1010600032E0560107FF09C084E0A80EB11CF6016A
:10107000608171818281938108C0F2E0AF0EB11C62
:10108000F6016081718180E090E0A3010E94380B3D
:10109000C82EC6180F77902E96FE0BC0092D0E7F16
:1010A000C11650F494FE0AC092FC08C0092D0E7EB1
:1010B00005C0DC2C092D03C0DC2C01C0D12E04FF9F
:1010C0000DC0FE01EC0DF11D8081803311F4097E0D
:1010D00009C002FF06C0D394D39404C0802F867841
:1010E00009F0D39403FD11C000FF06C01C2DD514D8
:1010F00080F4150D1D190DC0D51458F4B70180E208
:1011000090E00E94DA0AD394F7CFD51410F45D185A
:1011100001C0512C04FF10C0B70180E390E00E9491
:10112000DA0A02FF17C001FD03C088E790E002C0A1
:1011300088E590E0B7010CC0802F867859F001FF58
:1011400002C08BE201C080E207FD8DE2B70190E0B2
:101150000E94DA0AC11638F4B70180E390E00E94D9
:10116000DA0A1150F7CFCA94F301EC0DF11D80811A
:10117000B70190E00E94DA0AC110F5CF15C0F4E083
:10118000F51560F584E0581A93FE1FC0011127C0C1
:101190002C8523FF2AC004E510E0392D3071932EF1
:1011A000F8018491811124C0552009F4E4CCB701E1
:1011B00080E290E00E94DA0A5A94F6CFF701868125
:1011C000978126C08FEF9FEF23C0B70180E290E0A8
:1011D0000E94DA0A5A945110F8CFD8CF512CB70197
:1011E000802F90E00E94DA0AD3CF08E510E0D5CF37
:1011F00091108052B70190E00E94DA0A0F5F1F4FF2
:10120000CFCF23E0251510F483E0BDCF512CC0CF04
:101210006096E2E10C94C809689401C0E894F92F43
:10122000F12B12F00C944009A0E0B0E0EAE1F9E003
:101230000C94B209092E059422F40E949C091123F2
:1012400092F4F0E80F26FFEFE094F09400951095EB
:10125000B094C094D094A194BF0ACF0ADF0AEF0AD9
:10126000FF0A0F0B1F0B0E944B0907FC0E949C09F1
:10127000CDB7DEB7ECE00C94CE09689401C0E894D9
:101280008F929F92CF93DF930E944B09DF91CF9172
:101290009F908F90089588249924F401E401B0E48C
:1012A0009F93AA279A158B049C04ED05FE05CF0594
:1012B000D007A10798F4AD2FDC2FCF2FFE2FE92DFB
:1012C000982C892E982F872F762F652F542F432FF8
:1012D000322F2227B85031F7BF9127C01B2EBF9164
:1012E000BB27220F331F441F551F661F771F881F00
:1012F000991F881C991CEE1FFF1FCC1FDD1FAA1F02
:10130000BB1F8A149B04EC05FD05CE05DF05A00775
:10131000B10748F08A189B08EC09FD09CE09DF09DE
:10132000A00BB10B21601A94E1F62EF49401AF01E9
:10133000BE01CD01000C0895609570958095909543
:1013400030954095509521953F4F4F4F5F4F6F4FD0
:101350007F4F8F4F9F4F08952F923F924F925F92F2
:101360006F927F928F929F92AF92BF92CF92DF92B5
:10137000EF92FF920F931F93CF93DF93CDB7DEB71A
:10138000CA1BDB0B0FB6F894DEBF0FBECDBF0994AE
:101390002A88398848885F846E847D848C849B8405
:1013A000AA84B984C884DF80EE80FD800C811B8113
:1013B000AA81B981CE0FD11D0FB6F894DEBF0FBE42
:1013C000CDBFED0108952A0D3B1D4C1D5D1D6E1D09
:1013D0007F1D801F911F0895283008F027E03327D4
:1013E000DA01990F311D87FD916000966105710545
:1013F00039F432602E5F3D9330E32A95E1F708958A
:101400009F3F30F080387105610509F03C5F3C5F1B
:101410003D93913008F08068911DDF93CF931F9327
:101420000F93FF92EF92192F987F9695E92F96953B
:101430009695E90FFF27EA54FF4F99273327EE24AB
:10144000FF24A701E70105900894079428F4360FBC
:10145000E71EF81E491F511D660F771F881F991F31
:101460000694A1F70590079428F4E70EF81E491F8B
:10147000561FC11D770F881F991F661F0694A1F77D
:101480000590079428F4F80E491F561FC71FD11D59
:10149000880F991F661F771F0694A1F70590079480
:1014A00020F4490F561FC71FD81F990F661F771FBB
:1014B000881F0694A9F784911095177041F0D6956E
:1014C000C79557954795F794E7941A95C1F7ECE5BA
:1014D000F0E068941590159135916591959105907E
:1014E0007FE27395E118F10A430B560BC90BD00943
:1014F000C0F7E10CF11E431F561FC91FD01D7EF41B
:10150000703311F48A95E6CFE894015030F0080F5B
:101510000AF40027021708F4202F2395022F7A33AC
:1015200028F079E37D932A95E9F710C07D932A95F9
:1015300089F6069497956795379517951794E1184E
:10154000F10A430B560BC90BD00998F023957E91F5
:1015500073957A3308F070E37C932013B8F77E918B
:1015600070617D9330F0839571E37D9370E32A95EC
:10157000E1F71124EF90FF900F911F91CF91DF9130
:10158000992787FD90950895FC0105906150704062
:101590000110D8F7809590958E0F9F1F0895FC013C
:1015A0006150704001900110D8F7809590958E0F92
:1015B0009F1F08950F931F93CF93DF93FB01238108
:1015C00021FD03C08FEF9FEF2CC022FF16C0468184
:1015D0005781248135814217530744F4A081B1819A
:1015E0009D012F5F3F4F318320838C93268137816C
:1015F0002F5F3F4F3783268314C08B01EC01FB0123
:101600000084F185E02D0995892BE1F6D801169625
:101610008D919C911797019617969C938E93169790
:10162000CE01DF91CF911F910F910895AEE0B0E010
:10163000ECE1FBE00C94BA090D891E8986E08C83ED
:101640001A8309838FEF9FE79E838D83AE01475EE8
:101650005F4F6F89788DCE0101960E948F05EF81D3
:10166000F885E00FF11F10822E96E4E00C94D60965
:10167000FA01AA27283051F1203181F1E8946F93C3
:101680006E7F6E5F7F4F8F4F9F4FAF4FB1E03ED069
:10169000B4E03CD0670F781F891F9A1FA11D680F07
:1016A000791F8A1F911DA11D6A0F711D811D911D3A
:1016B000A11D20D009F468943F912AE0269F1124AF
:1016C0003019305D3193DEF6CF010895462F477013
:1016D000405D4193B3E00FD0C9F7F6CF462F4F706E
:1016E000405D4A3318F0495D31FD4052419302D0CC
:1016F000A9F7EACFB4E0A695979587957795679572
:10170000BA95C9F700976105710508959B01AC0171
:101710000A2E06945795479537952795BA95C9F798
:10172000620F731F841F951FA01D0895F894FFCFAB
:10173000493A25312E3266202041763A25312E3223
:1017400066004D6E3A25312E3266204D783A2531AD
:101750002E326600493A2D2D2D202041763A2D2D2E
:101760002D004D6E3A2D2D2D204D783A2D2D2D002A
:0417700025640000EC
:00000001FF
